:020000040800F2
:10000000E0350020450100084D2B0008651C000864
:100010002D290008E70B00084D3C000800000000F7
:10002000000000000000000000000000312F000868
:10003000650C000800000000D72B0008A53200085E
:100040005F010008D52B00085F0100085F01000870
:100050005F0100085F0100085F0100085F01000800
:100060005F0100085F0100085F0100085F010008F0
:100070005F0100085F0100085F0100085F010008E0
:100080005F0100085F0100085F0100085F010008D0
:100090005F0100085F0100085F0100085F010008C0
:1000A0005F0100085F0100085F0100085F010008B0
:1000B0009D3300085F0100085F0100085F01000830
:1000C0005F0100085F0100085F0100085F01000890
:1000D0005F010008BD3800085F0100085F010008EB
:1000E0005F0100085F0100085F0100085F01000870
:1000F0005F0100085F0100085F0100085F01000860
:100100005F0100085F010008CD3300085F010008AF
:100110005F0100085F0100085F0100085F0100083F
:100120005F0100085F0100085F0100085F0100082F
:10013000DFF80CD000F048FC004800476150000890
:10014000E03500200648804706480047FEE7FEE706
:10015000FEE7FEE7FEE7FEE7FEE7FEE7FEE7FEE777
:100160003D3300083101000840EA01039B0703D03A
:1001700009E008C9121F08C0042AFAD203E011F8E6
:10018000013B00F8013B521EF9D27047421C10F8A7
:10019000011B0029FBD1801A7047F0B480EA0102EC
:1001A000D40F4200B2EB410F02D20246084611467C
:1001B0004A0042D0C30DDDB2C1F3C752AD1A202DA3
:1001C00035DAC1F3160141F4000204B15242C5F11F
:1001D000200602FA06F12A411044B3EBD05F23D087
:1001E000C4B1012DA0EBC35009DCF0BC4FF00042BC
:1001F00002EAC352DBB200F5000000F02ABB400067
:1002000000F1807000EBC350A0F1807040EAD17023
:10021000490009E0490841EAC071A0EBC35000F56C
:100220000000400800EBC350F0BC00F009BB614285
:10023000012202EB4101001BF6E7F0BC704781F0A0
:100240000041AAE780F00040A7E780EA010210B56C
:1002500002F00043400022D04A001FD0010E01EB03
:100260001261C0F35600C2F3560240F4000042F49B
:100270000002A0FB022000047F39140400D0401CBF
:1002800050EA124001D44000491EC2B20C0604EBF1
:10029000D010401C4008802A02D003E0002010BD8E
:1002A00020F00100002900DA0020184310BD30B40E
:1002B00080EA010202F0004530F0004221F00040E7
:1002C00013D090B1C30DD40DC2F31601C0F31600C4
:1002D000E41A41F4000140F400027D34914201D35C
:1002E000641C00E04900002C02DA30BC002070479A
:1002F0004FF400000023914201D3891A03434008C0
:100300004FEA4101F7D151B1914202D14FF0004182
:1003100005E002D24FF0010101E06FF0010103EBB3
:10032000C450284430BC00F08BBA2DE9FE4F804603
:1003300081EA0300C00F0C46009021F0004123F039
:100340000045B8EB0200A94105D24046214690463F
:100350001C460B46024623F00040104347D0270DB1
:10036000C7F30A00C3F30A510290401A01904028D3
:100370006BDAC3F3130040F4801B0098924620B15F
:100380000023D2EB030A63EB0B0B01985946C0F133
:100390004002504600F023FA06460D4650465946A4
:1003A000019A00F03BFA10EB08006141002487EA53
:1003B000115284EAE7731A4340D0009A62B3019A5B
:1003C000012A4FEA075215DC001B61EB02014FF0D6
:1003D000004202EA0752CDE90042001C41F58011BB
:1003E00032462B4600F072FA03B0BDE8F08F40466B
:1003F0002146F9E7001B61EB0201001C41F5801367
:1004000000185B412018A2F5001747EB030140EAF2
:10041000D570B6196D4111E06D084FEA360645EA10
:10042000C0754FEA0752001B61EB0201001C41F549
:10043000801149084FEA30000019514132462B46DD
:1004400003B0BDE8F04F00F032BA0098012240003E
:100450000023D0EB020263EBE073009821464FEAE1
:10046000E074B8EB000061EB0401E9E783F00043BE
:100470005BE781F0004158E72DE9FE4F81EA030474
:1004800004F0004421F0004100944FF0000B23F0F1
:10049000004350EA01045ED052EA03045BD0C3F388
:1004A0000A54C1F30A552C44A4F2F3340194A0FB7E
:1004B0000254C1F3130141F48011C3F3130343F455
:1004C000801301FB024400FB034E840A970A44EAAE
:1004D000815447EA8357A4FB076802958D0A05FB00
:1004E00007854FEA932C04FB0C542705029D4FEA25
:1004F000065847EA1637B5EB08056EEB070C870E72
:10050000920E47EA811742EA8312A7FB0201B6EB7B
:100510000B0164EB00042B0D43EA0C335E1844EB33
:100520001C50DA465146E7FB0201C5F313044FEABB
:100530000B3343EA14534FEA0432019C43EA0603A7
:10054000A4F10C040294009CCDE900B400F0BEF9C3
:1005500003B0BDE8F08F00200146F9E72DE9F04D2A
:1005600081EA030404F0004B21F0004514464FF0EB
:10057000000A23F0004150EA050220D054EA0102AB
:100580001DD0C5F30A570246C5F31303C1F3130088
:10059000C1F30A5640F4801543F48013A7EB060814
:1005A000101BD64608F2FD3873EB050002D308F1A4
:1005B000010801E092185B41B8F1000F03DA002056
:1005C0000146BDE8F08D00204FF4801106468446B8
:1005D0000EE0171B73EB050705D3121B63EB050336
:1005E00006434CEA010C49084FEA300092185B417F
:1005F00050EA0107EDD152EA030012D082EA04006A
:1006000083EA0501084305D0101BAB4106D2012245
:10061000002306E000224FF0004302E06FF00102E9
:1006200053101AEB06004CEB085110EB0A0041EB9B
:100630000B01BDE8F04D00F03AB9C10F80EAE0705F
:100640000844CA079623002100F003B9962300222C
:10065000114600F0FEB80EB540F233410291002180
:10066000CDE900110A460B4600F030F903B000BD99
:1006700020F00040C10DC0F3160040F400007F29B7
:1006800001DA00207047962903DCC1F19601C840C9
:100690007047963988407047C1F30A5210B5C1F3CC
:1006A000130140F2FF3341F480119A4201DA002035
:1006B00010BD40F233439A42A2F2334203DC52426D
:1006C00000F09CF810BD904010BD00F0004230F0EA
:1006D00000400AD0C10D01F56071C0F3160042EA76
:1006E0000151C2084007114370470020014670477E
:1006F00001F0004330B421F0004150EA010206D07D
:100700000A0DA2F56072C1F31301002A02DC30BCAD
:1007100000207047440F44EAC104C100E01830BC17
:1007200000EBC25000F08CB8002801DBC0F10040A3
:10073000002901DBC1F1004181427047002801DB43
:10074000C0F10040002901DBC1F10041884270473F
:1007500030B50B46014600202022012409E021FA91
:1007600002F59D4205D303FA02F5491B04FA02F58E
:100770002844151EA2F10102F1DC30BD2DE9F05F25
:100780000546002092469B46884606468146402400
:100790001BE0284641464746224600F02FF85346C4
:1007A0005A46C01A914110D311461846224600F00D
:1007B00016F82D1A67EB01084F462246012000214A
:1007C00000F00DF817EB00094E41201EA4F10104C2
:1007D000DFDC484631462A464346BDE8F09F202AE2
:1007E00004DB203A00FA02F1002070479140C2F188
:1007F000200320FA03F3194390407047202A04DBBA
:10080000203A21FA02F00021704721FA02F3D04089
:10081000C2F120029140084319467047202A06DBA6
:10082000CB17203A41FA02F043EAE07306E041FABE
:1008300002F3D040C2F120029140084319467047AC
:100840000029A8BF7047401C490008BF20F00100E4
:10085000704710B4B0FA80FC00FA0CF050EA0104C2
:1008600004BF10BC704749B1CCF1200421FA04F454
:1008700011FA0CF118BF012121430843A3EB0C012D
:10088000CB1D4FEA00614FEA102042BF002010BC90
:10089000704700EBC35010440029A4BF10BC704740
:1008A000401C490008BF20F0010010BC704710B583
:1008B000141E73F1000408DA401C41F10001921883
:1008C0005B411A4301D120F0010010BD2DE9F04D2C
:1008D00092469B4611B1B1FA81F202E0B0FA80F281
:1008E00020329046FFF77BFF04460F4640EA0A009D
:1008F00041EA0B0153465A46084313D0114653EAC6
:10090000010019D0C8F140025046FFF777FF0546B5
:100910000E46504659464246FFF761FF084305D050
:10092000012004E020463946BDE8F08D0020054353
:1009300046EAE0762C4337430A986305E40AA0EBC5
:1009400008000022FD0A44EA47540A3002D500207C
:100950000146E9E7010510196941DDE9084500197B
:100960006941BDE8F04DA2E7C1F30A52C1F313019A
:1009700040F2FF3341F480119A4202DA002001462E
:10098000704740F233439A42A2F2334202DC5242B1
:10099000FFF734BFFFF723BF30B5041E71F1000429
:1009A00004DB4FF00044404264EB0101141E73F17C
:1009B000000405DB1C464FF00043524263EB040386
:1009C000994208BF904230BD064C074D06E0E068F2
:1009D00040F0010394E8070098471034AC42F6D386
:1009E000FFF7AAFB585C0008785C000870B58C180B
:1009F00010F8015B15F0070301D110F8013B2A1133
:100A000006D110F8012B03E010F8016B01F8016B1F
:100A10005B1EF9D12B0705D40023521E0DD401F81B
:100A2000013BFAE710F8013BCB1A921C03E013F8E4
:100A3000015B01F8015B521EF9D5A142D8D3002019
:100A400070BD000010B5002101A000F05CF910BDE0
:100A5000414F2D31202020200000000010B5002142
:100A600001A000F050F910BD414F2D322020202070
:100A70000000000010B5002101A000F044F910BDF5
:100A8000414F2D33202020200000000010B50446E7
:100A900004EB8401034A02EB8100002100F033F9EA
:100AA00010BD00006657000838B500F0D9FD1D499B
:100AB00008600846006800788DF800000846006865
:100AC00040788DF801000846006880788DF80200B3
:100AD000084600688378084600684278084600683F
:100AE000017811A003F014FA00F07AFC16490860AE
:100AF000002413E01DF8040000F04AF805461DF834
:100B00000400114A126852F820102A46204600F0CC
:100B1000A9FF642000F0BCF8601CC4B2032CE9DB20
:100B200038BD000040000020D1A1D4F1B5C433C2CB
:100B3000B7CAE4B3F6C1BF20202025642C202025AD
:100B4000642C2020256420003C00002010B50121E9
:100B50000C2003F0B9F800210F2003F0B5F80021B4
:100B6000092003F0B1F807210B2003F0ADF80321B1
:100B70000A2003F0A9F810BD10B5044802F0FEFDEC
:100B800001F0FAFA01F0D4FE10BD0000153700089C
:100B90000146032901DA00207047022903DD0629F6
:100BA00001DA0120F8E7052903DD122901DA022024
:100BB000F2E7122901D10320EEE7132901D1042025
:100BC000EAE70520E8E760F400016FF400029142D3
:100BD00008D000F40001B1F5000F03D1C143491C56
:100BE000C1F31600704700BFFEE730B502460B4662
:100BF000FF20002113E0545C604008240BE000F06B
:100C0000800525B1312585EA4005E8B201E04506B9
:100C1000280E651EECB2002CF1DC4C1CE1B29942AE
:100C2000E9D330BD10B50021C32004F033FBC82048
:100C300000F02EF810BD000010B5002101A000F05A
:100C400062F810BD436F6465202020200000000082
:100C500010B5002101A000F056F810BD436F6E6E74
:100C600020202000704700000748006840F0807096
:100C7000054908600020054948600846006840F0C2
:100C80000100086070470000FCED00E0001000E08B
:100C900030B50446002504E04FF47A7000F004F803
:100CA0006D1CA542F8D330BD10B501460C4C6268EE
:100CB00001EBC104E300D018904205DD00BF084CF1
:100CC00064688442FBD309E000BF054C6468844239
:100CD000FBD200BF024C64688442FBD310BD00000D
:100CE000001000E02DE9F04104460D46164631465D
:100CF000284601F077FC0746611CC8B2394602F06D
:100D0000E3FFBDE8F0812DE9F04194B006460F46BF
:100D10000020009001900290039000253046FFF7DC
:100D200035FA8046B8F1100F01DD4FF010080024AD
:100D300011E0305D2E2805D10121681E04AA42F879
:100D4000201007E0305D0DF80500002004A941F8EF
:100D500025006D1C641C4445EBDB082D00DD0825D7
:100D6000002420E077B904AB53F824300BB1012301
:100D700000E000231A461DF804102B19581BFFF73A
:100D8000B1FF0FE0012F0DD104AB53F824300BB1AC
:100D9000012300E000231A461DF804102B1B581EE7
:100DA000FFF7A0FF641CAC42DCDB14B0BDE8F081AF
:100DB00010B5FFF759FF02F04BFF0BA003F0A8F8A6
:100DC00001F0CEFB01F05AFD02F017FD01F09AFA96
:100DD00002F028FA00F06EF800F010FE01F082FA3E
:100DE00002F0C6F810BD00005468697320697320D2
:100DF00055415254207072696E7466207465737424
:100E0000210A000070B5002402F07CF8FFF70AFF09
:100E10004BF67E11012002F0A7FF4FF6840103205C
:100E200002F0A2FF4FF48071022002F09DFF43F216
:100E30003741312002F098FF4FF47F416D2002F0DE
:100E400093FF40F6B8516E2002F08EFF4DF2DA119A
:100E50006F2002F089FF6D211E2002F085FF40F611
:100E60000F01352002F080FF0221C52002F07CFF37
:100E7000002002F025F80446214606A003F048F8B9
:100E80005E2002F01DF80546294606A003F040F852
:100E900070BD0000D0BEC6AC494420202523780D8B
:100EA0000A000000D0A3D1E9BACD20202523780D77
:100EB0000A00000010B500F001F810BD08B50121CE
:100EC000082001F0A9FEC020ADF8000014208DF824
:100ED000030001208DF802006946024800F0DAFAAA
:100EE00008BD0000000C01402DE9F05F4FF0000B41
:100EF00000F0DCFB8246BAF1030F31D1FD4800F06F
:100F000027FDFD490860FD4800F0F6FBFC4908603C
:100F1000FC4800F04DFCFC490860002416E0F6494E
:100F2000096851F82400214602F052F9F449096891
:100F300051F82400214602F04FF8F349096851F8AE
:100F40002400214602F072F8601CC4B2032CE6DBD8
:100F500005E0012002F058FC6420FFF799FEF8E755
:100F6000BAF1070F29D1E94800F08AFCE849086086
:100F7000002409E0E649096851F82400214602F0FE
:100F80007FF88346601CC4B2032CF3DBE0480068A2
:100F90008368DF4800684268DD4800680168DDA0BA
:100FA00002F0B6FF05E0012002F02EFCC820FFF79A
:100FB0006FFEBBF1000FF6D105E2BAF10F0FFBD1C6
:100FC000002425E004F10D01C8B201F079FF400BC7
:100FD00000EB800045002846FFF738FBD74941F871
:100FE000240004F11001C8B201F06AFF470B384633
:100FF000FFF72CFB0646D249FFF759F90546D149C0
:10100000FFF723F9CD490C3141F82400601CC4B22C
:10101000032CD7DB00243DE0611CC8B201F050FF77
:10102000C949086008460068B0F5000F1DD9084698
:101030000068A0F18070086008460068C04308603E
:1010400008460068FFF702FB0746C049FFF7FDF8B6
:101050000646BF49FFF7F9F80546BE49FFF7F5F820
:10106000B649183141F8240012E0B7480068B64983
:1010700008600868FFF7EAFA0646B449FFF7E5F8A2
:101080000546B449FFF7E1F8AC49183141F82400AE
:10109000601CC4B2032CBFDB042001F011FFAA497D
:1010A000086008460068B0F5000F1BD908460068C4
:1010B000A0F18070086008460068C04308600968B5
:1010C0004800FFF7C3FA0646A049FFF7BEF80546F9
:1010D0009F49FFF7BAF804469E49FFF7B6F89749CB
:1010E000486211E09848006897490860096848001C
:1010F000FFF7ACFA05469549FFF7A7F8044695496E
:10110000FFF7A3F88D49486200243DE0611DC8B295
:1011100001F0D6FE8C49086008460068B0F5000F63
:101120001DD908460068A0F1807008600846006874
:10113000C043086008460068FFF788FA07468349FD
:10114000FFF783F806468249FFF77FF80546814995
:10115000FFF77BF87949283141F8240012E07A48FA
:101160000068794908600868FFF770FA0646774911
:10117000FFF76BF805467749FFF767F86F492831A5
:1011800041F82400601CC4B2032CBFDB082001F02E
:1011900097FE6D49086008460068B0F5000F1BD93E
:1011A00008460068A0F18070086008460068C043E7
:1011B000086009684800FFF749FA06466349FFF7E7
:1011C00044F805466249FFF740F804466149FFF7D5
:1011D0003CF85A49486311E05B4800685A49086086
:1011E00009684800FFF732FA05465849FFF72DF81D
:1011F00004465849FFF729F850494863002427E07E
:1012000004F10901C8B201F05BFE4F4908600846CD
:101210000068B0F5000F05D908460068A0F180709D
:10122000086003E04848006847490860464800688D
:10123000FFF70CFA06464549FFF707F8054645490A
:10124000FFF703F83D49383141F82400601CC4B26F
:10125000032CD5DB0C2001F033FE3B490860084627
:101260000068B0F5000F05D908460068A0F180704D
:10127000086003E03448006833490860324909686F
:101280004800FFF7E3F905463049FEF7DEFF044664
:101290003049FEF7DAFF29494864172001F010FEB3
:1012A0002949086008460068B0F5000F56D908467D
:1012B0000068A0F18070086008460068C0430860BC
:1012C00008460068FFF7C2F907464FF07E51FEF767
:1012D000BCFF06464FF09641FEF7E9FF05461C4964
:1012E000FEF7B3FF04461C49FEF7AFFF13498864BD
:1012F00051E0000000005C43900200200000A0408C
:101300009402002000808944980200200080094453
:101310009C020020D0B4C8EB454550524F4DC4DA72
:10132000B5C4CFE0CEBBD0A3D5FDD6B520202523B4
:101330007820252378202523780D0A001805002021
:101340003333B3410000C842A40200202521113CE0
:10135000000080BF0000204100007A441B48006864
:101360001A49086008460068FFF770F907464FF011
:101370007E51FEF76AFF06464FF07E51FEF765FF8D
:1013800005464FF09641FEF792FF04461049FEF7DE
:101390005CFF104988641C2001F092FD0B49086035
:1013A00008460068FFF757F9804600220A4BFFF70E
:1013B000D5F806460022094BFFF75EF80446FFF712
:1013C00097F90449C864BDE8F09F0000A40200201A
:1013D00000007A44180500200000C0400000594079
:1013E000004870471805002010B500F0ABFE10BD96
:1013F00008B50121082001F00FFC4FF44070ADF852
:10140000000014208DF8030003208DF802006946C7
:10141000044800F03FF84FF44071024800F019F919
:1014200008BD0000000C014010B54FF400710B48DE
:1014300000F00FF90520FFF737FC4FF480710748E3
:1014400000F007F90520FFF72FFC4FF40071034867
:1014500000F0FDF80520FFF727FC10BD000C01404F
:1014600010B54FF400710A4800F0F1F80520FFF7BD
:101470001BFC4FF48071064800F0EBF80520FFF7E5
:1014800013FC4FF40071024800F0E3F810BD0000B7
:10149000000C01402DE9F041024600250026002005
:1014A00000230024002791F803C00CF00F0591F8E9
:1014B00003C00CF0100CBCF1000F03D091F802C077
:1014C0004CEA050591F800C0BCF1000F31D014685A
:1014D00000202BE04FF0010C0CFA00F3B1F800C033
:1014E0000CEA03069E4220D183004FF00F0C0CFA49
:1014F00003F7BC4305FA03FC4CEA040491F803C06B
:10150000BCF1280F06D14FF0010C0CFA00FCC2F818
:1015100014C00AE091F803C0BCF1480F05D14FF0A8
:10152000010C0CFA00FCC2F810C0401C0828D1D3F2
:101530001460B1F800C0BCF1FF0F34DD5468002026
:101540002EE000F1080C4FF0010808FA0CF3B1F896
:1015500000C00CEA03069E4221D183004FF00F0C1D
:101560000CFA03F7BC4305FA03FC4CEA040491F8B7
:1015700003C0BCF1280F05D100F1080C08FA0CF8E3
:10158000C2F8148091F803C0BCF1480F07D100F1F4
:10159000080C4FF0010808FA0CF8C2F81080401C43
:1015A0000828CED35460BDE8F0810000F0B50A46AB
:1015B000002300240021002500F00046B6F1004F72
:1015C00002D11D4EF16901E01B4E7168C0F3034565
:1015D00083B200F44016B6F5401F08D121F07061C7
:1015E000154E766826F07066134F7E6012E000F4A8
:1015F0008016B6F5801F06D1032606FA05F4A1432E
:1016000041F0706106E0460D360103FA06F6B1437B
:1016100041F0706122B1460D360103FA06F63143FE
:1016200000F00046B6F1004F02D1034EF16101E037
:10163000014E7160F0BD0000000001400246002034
:1016400093680B400BB1012000E00020704741611E
:101650007047016170470AB1016100E04161704764
:10166000004870470804002070B50025002407E0FA
:10167000204600F071FE054605B103E0601CC4B2CF
:10168000032CF5D300BF284670BD000001488078C8
:10169000704700009C03002001484068704700002C
:1016A0009C03002010B5FFF79BFE10BD70B5002411
:1016B000002515E06006040E05EB45020A4B03EB1E
:1016C0008202118905EB450203EB82025068FFF7A5
:1016D000B5FF10B144F0010400E000BF681CC5B2C2
:1016E000042DE7D3204670BD10030020014908688F
:1016F00049687047B00200202DE9F04705460026F2
:10170000002700244AE004F11A01C8B2002102F0C7
:101710002BFB4FF47A70FFF7BBFA04F11001C8B24B
:1017200001F0CEFB4FEA50394846FEF78FFF804666
:101730001D49FEF7BCFD064631462846FEF7B7FDBB
:1017400080464FF07E51FEF77AFD0746002138466D
:10175000FEF7F4FF0BD84FF08E413846FEF775FDCB
:101760008046FEF785FF114941F8240014E000216E
:101770003846FEF7D9FF0FD24FF08E413846FEF7BC
:1017800064FD81464FF08F41FEF707FD8046FEF76E
:101790006FFF064941F82400601CC4B2032CB2DB81
:1017A0000248BDE8F08700003333B341BC05002098
:1017B0002DE9F04705460026B0460027002456E0F4
:1017C000211DC8B2002102F0CFFA40F2DC50FFF731
:1017D0005FFA611CC8B201F073FB8246FFF7F3F9B0
:1017E0008146FEF72AFF064623493046FEF72DFDC7
:1017F000064631462846FEF725FD81462946FEF776
:1018000056FD074639464FF07E50FEF7C6FC82462D
:1018100087F0004951464846FEF749FD80460021C1
:101820004046FEF78BFF0BD84FF08E414046FEF747
:101830000CFD8146FEF71CFF104941F8240014E01E
:1018400000214046FEF770FF0FD24FF08E41404618
:10185000FEF7FBFC82464FF08F41FEF79EFC81466F
:10186000FEF706FF054941F82400601CC4B2032CB2
:10187000A6DB0248BDE8F0872521113CC805002001
:101880002DE9FE4F82464FF0000B002002900190A0
:10189000002450E04FF4FA70FFF7FAF9611CC8B267
:1018A00001F00EFB81464846FEF7D0FE054624496E
:1018B000FEF7CBFC834659465046FEF7C3FC05466F
:1018C0005146FEF7F4FC0190019880F00040009032
:1018D000FEF7FBFE07461B4A1B4BFEF73FFE054685
:1018E000FEF706FF029000210298FEF727FF0BD8B3
:1018F0004FF08E410298FEF7A8FC0546FEF7B8FEB1
:10190000124941F8240014E000210298FEF70CFF70
:101910000FD24FF08E410298FEF797FC06464FF02B
:101920008F41FEF73AFC0546FEF7A2FE074941F853
:101930002400601CC4B2032CACDB0448BDE8FE8F5D
:101940002521113C83C0CAA145B6FB3FD405002028
:101950002DE9F047054600260027002446E004F163
:101960001701C8B2002102F0FFF94FF47A70FFF7B7
:101970008FF904F10D01C8B201F0A2FA4FEA503814
:101980004046FEF763FE064631462846FEF78FFCCA
:1019900080464FF07E51FEF752FC07460021384644
:1019A000FEF7CCFE0BD84FF08E413846FEF74DFCCB
:1019B0008046FEF75DFE104941F8240014E0002146
:1019C0003846FEF7B1FE0FD24FF08E413846FEF793
:1019D0003CFC81464FF08F41FEF7DFFB8046FEF76F
:1019E00047FE054941F82400601CC4B2032CB6DB55
:1019F0000148BDE8F0870000B005002010B5FFF7F2
:101A0000F7FCFFF711FDB02002F02AF900F060FBAF
:101A1000022002F025F900F05BFB00F03BFBFFF732
:101A20001FFDFFF701FDB22002F01AF900F050FB94
:101A3000022002F015F900F04BFB00F02BFBFFF742
:101A40000FFDFFF7F1FCB42002F00AF900F040FBB3
:101A5000022002F005F900F03BFB00F01BFBFFF752
:101A6000FFFC10BD2DE9F74F84B0894614460020D5
:101A70000290052C7CD2DFE804F003213F5D7C005E
:101A80004846FEF722FE00224B4BCDE90001FEF74F
:101A900065FD82464FF04042484BFEF7EDFC07469D
:101AA0000022474BFEF741FC0546FEF7F5FD80B2EC
:101AB00002900299049801F03CFA79E04846FEF75A
:101AC00004FE00223F4BCDE90001FEF747FD07462B
:101AD0004FF040423C4BFEF7CFFC05460022384B0E
:101AE000FEF723FC8246FEF7D7FD80B202900299F2
:101AF000049801F01EFA5BE04846FEF7E6FD8246D8
:101B000000222D4BFEF72AFD05464FF000522F4BC9
:101B1000FEF7B2FC074600222D4BFEF706FCCDE98E
:101B20000001FEF7B9FD80B202900299049801F01D
:101B300000FA3DE04846FEF7C8FD0022214BCDE902
:101B40000001FEF70BFD07464FF040421E4BFEF72B
:101B500093FC054600221A4BFEF7E7FB8246FEF790
:101B60009BFD80B202900299049801F0E2F91FE017
:101B70001DE04846FEF7A9FD82460022114BFEF704
:101B8000EDFC05464FF040420F4BFEF775FC074653
:101B900000220B4BFEF7C9FBCDE90001FEF77CFDEF
:101BA00080B202900299049801F0C3F900E000BFEE
:101BB00000BF07B0BDE8F08F00002440CCD46740E0
:101BC000807AC440000059404C62C040856B194087
:101BD00020B8DE4008B50121042001F01DF80F48AF
:101BE000008980B2ADF8000018208DF803000320B2
:101BF0008DF80200094948686946FFF74BFC074821
:101C0000808980B2ADF8000048208DF803000349B8
:101C100048686946FFF73EFC08BD0000400300200D
:101C200008B50121042000F0F7FF4FF40070ADF873
:101C3000000018208DF8030003208DF8020069468B
:101C40000748FFF727FC4FF48060ADF800004820FC
:101C50008DF8030069460248FFF71CFC08BD000030
:101C60000008014000BFFEE710B5FFF7F9FC8C4902
:101C700008608C48007818B98B48007800F0DCFCCC
:101C8000FFF7F2FC8949087008460078812847D0A0
:101C900006DC012809D0022843D0032877D197E039
:101CA000822875D08328F9D1D4E07E480078401F7F
:101CB000072832D2DFE800F0040D16311F252B0073
:101CC000092078490870764909680878FEF7DEFE31
:101CD00024E00A2073490870714909684878FEF7C2
:101CE000D5FE1BE00B206F4908706D4909688878A4
:101CF000FEF7CCFE12E005206A490870FEF7A2FE4E
:101D00000CE0062067490870FEF7A8FE06E00720F1
:101D100064490870FEF7AEFE00E000BF00BFBDE002
:101D2000BCE06048007830B1092810D00A281ED0E5
:101D30000B283ED12DE05C480078401C5A490870C1
:101D4000084600780B2801D10020087032E058487E
:101D50000078401C5649087008460078142801D1C4
:101D60000020087052490878FEF790FE22E05048A3
:101D70004078401C4E49487008464078142801D1EC
:101D8000002048704A494878FEF780FE12E084E05F
:101D900012E047488078401C4549887008468078A2
:101DA000142801D10020887041498878FEF76EFE22
:101DB00000E000BF00BF71E03E480078401C3D4994
:101DC000087008460078042801DD0120087065E0ED
:101DD0003448007809283AD2DFE800F0050B1117E3
:101DE0001D23292F350001202E490870FEF724FFFE
:101DF0002EE002202B49087001F0E0F928E00320D2
:101E00002849087002F066FD22E004202549087088
:101E1000FEF71EFF1CE0052022490870FEF712FEA7
:101E200016E006201F490870FEF718FE10E0072094
:101E30001C490870FEF71EFE0AE0082019490870C8
:101E400001F06AF804E000201649087000E000BFC5
:101E500000BF23E01348007808281DD114490878F2
:101E6000002101F091F812494878012101F08CF825
:101E70000F498878022101F087F805E0032001F07E
:101E8000C3FC6420FEF704FF0B4801880088401E55
:101E9000094A10800029F1D100E000BF00BF10BD49
:101EA0005800002044000020540000205C00002066
:101EB0004A000020450000205E00002010B5FFF71A
:101EC000D3FE10BD70B5002480211148FFF7C1FB7F
:101ED000002518E040210E48FFF7BBFB0420FEF769
:101EE000E3FE6006040E80210948FFF7A7FB08B156
:101EF000601CC4B240210648FFF7A9FB0420FEF78E
:101F0000D3FE681CC5B2082DE4DB204670BD00007E
:101F1000000C014010B580210C48FFF798FB04200D
:101F2000FEF7C2FE40210948FFF793FB0420FEF7AD
:101F3000BBFE40210548FFF78AFB0420FEF7B4FEF4
:101F400080210248FFF785FB10BD0000000C014016
:101F500070B50446002520E004F0800020B1802107
:101F60000F48FFF776FB03E080210D48FFF76FFB7A
:101F70006006040E0420FEF797FE40210848FFF794
:101F800068FB0420FEF790FE40210548FFF75FFB49
:101F90000420FEF789FE681CC5B2082DDCDB70BD8D
:101FA000000C014010B580210A48FFF752FB0420C5
:101FB000FEF77AFE40210748FFF74BFB0420FEF7AF
:101FC00073FE40210348FFF742FB0420FEF76CFE3E
:101FD00010BD0000000C014010B580210C48FFF737
:101FE00038FB40210A48FFF734FB0420FEF75CFE73
:101FF00080210748FFF72BFB0420FEF755FE402108
:102000000348FFF724FB0420FEF74EFE10BD00003E
:10201000000C014010B580210848FFF718FB042090
:10202000FEF742FE40210548FFF713FB0420FEF7B0
:102030003BFE80210148FFF70CFB10BD000C014066
:1020400010B5002480211248FFF703FB0420FEF79F
:102050002BFE40210E48FFF7FCFA0420FEF724FE79
:1020600007E0601CC4B2FA2C03DDFFF7D3FF0020A9
:1020700010BD80210648FFF7E1FA0028F1D1402188
:102080000348FFF7E4FA0420FEF70EFE0120EFE715
:10209000000C014010B54FF400710C48FFF7D9FA5D
:1020A0004FF480710948FFF7D2FA0520FEF7FCFDD6
:1020B0004FF480710548FFF7CCFA0520FEF7F4FDD8
:1020C0004FF480710148FFF7C2FA10BD000C0140C7
:1020D00070B500244FF480711548FFF7B8FA052059
:1020E000FEF7E2FD4FF400711148FFF7B2FA4FF42A
:1020F00080710F48FFF7ADFA0520FEF7D5FD07E028
:10210000601CC4B24FF400710948FFF797FA054606
:102110004FF400710648FFF791FA012801D1FF2C16
:10212000EEDB4FF480710248FFF791FA284670BD4C
:10213000000C01404CF6CC4001490860704700009B
:10214000003000404AF6AA200149086070470000AC
:1021500000300040014948607047000000300040F6
:102160000149886070470000003000400149086064
:102170007047000000300040F0B59DB0702146A0CF
:1021800001F0C6FEFFF792FA054601A800F0A5FE91
:10219000002879D0BDF8040045F65A21884273D151
:1021A000702201A94248FDF7DFFF002455E0404AB4
:1021B000243252F8241004F11702D0B201F0D4FDF9
:1021C0003B4A303252F8241004F11A02D0B201F026
:1021D000CBFD374A3C3252F82410221DD0B201F018
:1021E000C3FD334A3C3252F82410E21DD0B201F054
:1021F000BBFD0F2D1BD12E4A603252F8241004F182
:102200000D02D0B201F0B0FD294A603252F824101C
:1022100004F11002D0B201F0A7FD254A603252F855
:10222000241004F16102D0B201F09EFD13E0072DED
:1022300011D104F10D01C8B2002101F095FD04F1A6
:102240001001C8B2002101F08FFD04F16101C8B294
:10225000002101F089FD601CC4B2032CA7DB0F2014
:1022600000F064FD04460E2000F060FD06460D20DF
:1022700000F05CFD07462346324639460DA001F0CA
:1022800047FE1DB0F0BDFFE7702215490848FDF775
:102290006BFF00BFF5E70000B4E6B4A2BDE1B9B939
:1022A000CCE5B3A4B6C8202025640D0A00000000C8
:1022B0009C030020B6C1C8A1485437303336CFE064
:1022C000CEBBD0A3D5FDBCC4B4E6C6F7D6B520209E
:1022D00025237820252378202523780D0A00000067
:1022E000F858000810B545F25550FFF73FFF06209B
:1022F000FFF730FF40F22B10FFF732FFFFF71AFF16
:1023000010BD000038B5002420E004EB4401114A60
:1023100052F82100012100F07FFC04EB44000D493C
:1023200001EB80000089ADF8000004208DF8030067
:1023300002208DF8020004EB4401064A02EB810101
:1023400048686946FFF7A6F8601CC4B2032CDCD3CA
:1023500038BD0000EC0200207CB5044604EB4402CA
:10236000794B03EB8202118904EB440203EB8202F6
:102370005068FFF763F9054604EB4400734911F810
:10238000300030B101283DD002285FD003287DD134
:10239000C3E07DB9012004EB44016C4A02F831002E
:1023A000FFF7A4F904EB4402684B03EBC202C2E955
:1023B0000201C5E004EB4400644901EBC000407831
:1023C000F8B1FFF793F9CDE9000104EB44005F4950
:1023D00001EBC000D0E90416DDE900305A1A60EBC9
:1023E00006004FF4967300219A1A814109D2002009
:1023F00004EB4401554A02EBC1014870601CC0B2B5
:102400007CBD9DE0DDB9FFF771F9CDE9000104EB7A
:1024100044004E4901EBC000D0E90231DDE9002063
:10242000D21A60EB01000A2300219A1A81410CD2D2
:10243000022004EB4401454A02F8310005E0002087
:1024400004EB4401414A02F8310079E0EDB3002089
:1024500004EB44013D4A02F8310004EB440011460C
:1024600001EBC0004078401C04EB440102EBC101C9
:10247000487004EB4400114601EBC000407801288D
:102480000BD1FFF733F904EB440200E051E02F4B8E
:1024900003EBC202C2E9040152E0FFF727F9CDE9DC
:1024A000000104EB4400294901EBC000D0E90423FA
:1024B000DDE900108A1A60EB03004FF496730021E7
:1024C0009A1A814128D3002000E009E004EB44017E
:1024D0001E4A02EBC101487004F15100C0B28FE7FF
:1024E000FFF704F9CDE9000104EB4400174901EBC3
:1024F000C000D0E90231DDE90020D31A60EB010011
:102500004FF47A720021D21A814105D2032004EBE4
:1025100044010E4A02F8310012E04DB1002004EBF4
:1025200044010A4A02F8310004F18100C0B267E7B1
:1025300006E0002004EB4401044A02F8310000BF29
:1025400000BF00205CE70000EC02002068050020CE
:1025500010B5012001F058F9FEF746FF10BD00004C
:1025600038B501210D2000F057FB01211B48FFF772
:102570001DF800242FE004EB4401194A52F8210011
:10258000012100F049FB04EB4400154901EB8000F8
:10259000008980B2ADF8000010208DF80300012002
:1025A0008DF8020004EB44010D4A02EB81014868FA
:1025B0006946FEF76FFF04EB4402094B03EB82020E
:1025C000128991B204EB440203EB82025068FFF7D8
:1025D0003EF8601CC4B2042CCDD338BD00023000DC
:1025E000BC02002010B502460C46002304B10123B2
:1025F000232A05DB2C2A03DC02F10D00C2B20123E1
:10260000002113E00B4810F8110090420DD13BB1AE
:10261000084800EB4100437843F08003184610BDA2
:10262000044800EB41004078F9E7491C3729E9D319
:102630000020F4E7865B0008F0B589B00446FEF799
:10264000CFFE7F490860032C1FDA096851F8240087
:102650007C49FDF72CFE07463846FEF736F805465E
:102660002A460B4678A106A801F062FC04EB840020
:10267000774901EB800206AB76A101A801F058FC76
:10268000002101A8FEF73FFBD7E0022C22DD062C3B
:1026900020DA6B49096851F824007049FDF707FEFC
:1026A00007463846FEF711F805462A460B466CA148
:1026B00006A801F03DFC04EB8400654901EB8002B3
:1026C00006AB64A101A801F033FC002101A8FEF7CC
:1026D0001AFBB2E0062C21D15949096801EB8401AB
:1026E000C8685849FDF7E3FD07463846FDF7EDFF9A
:1026F00005462A460B465CA106A801F019FC04EB2E
:102700008400534901EB800206AB52A101A801F0FD
:102710000FFC002101A8FEF7F6FA8EE0072C21D16C
:102720004749096801EB840188694649FDF7BFFD07
:1027300007463846FDF7C9FF05462A460B464AA11B
:1027400006A801F0F5FB04EB8400414901EB80028F
:1027500006AB40A101A801F0EBFB002101A8FEF7A8
:10276000D2FA6AE0082C21D13549096801EB8401CD
:10277000486A3449FDF79BFD07463846FDF7A5FF3B
:1027800005462A460B4638A106A801F0D1FB04EB0A
:1027900084002F4901EB800206AB2EA101A801F0B5
:1027A000C7FB002101A8FEF7AEFA46E0092C21D1B3
:1027B0002349096801EB8401486A2D49FDF777FD3B
:1027C00007463846FDF781FF05462A460B4624A1F9
:1027D00006A801F0ADFB04EB84001D4901EB80026B
:1027E00006AB1CA101A801F0A3FB002101A8FEF784
:1027F0008AFA22E00A2C20D11149096801EB8401F0
:10280000486A1649FDF753FD07463846FDF75DFF58
:1028100005462A460B4617A106A801F089FB04EBE2
:1028200084000B4901EB800206AB0AA101A801F06C
:102830007FFB002101A8FEF766FA09B0F0BD000099
:10284000500000200000204125352E316600000098
:102850008A56000825732573200000000000C84236
:1028600025352E336600000025342E30660000002A
:1028700000007A4425342E326600000010B500F0C6
:102880003FF84FF480511C48FEF7E3FE4FF400512F
:102890001948FEF7DEFE4FF480411748FEF7D9FED7
:1028A000FEF754F915480178012001F00DFA13489C
:1028B0004178022001F008FA10488178032001F0E5
:1028C00003FA0E48C178042001F0FEF90B480179A3
:1028D000052001F0F9F909484179062001F0F4F9E1
:1028E00006488179072001F0EFF90448C1790820F2
:1028F00001F0EAF910BD0000000C01407C5B00080B
:1029000008B50121082000F087F94FF4E040ADF848
:10291000000010208DF8030001208DF802006946A8
:102920000148FEF7B7FD08BD000C014000BFFEE7FF
:1029300000B585B0142208496846FDF715FCFEF77E
:10294000A5FE8DF80000FEF7A7FE0190684600F096
:10295000E5F805B000BD000068590008704770B583
:102960000446FEF79FFE0546E86CFDF781FE2080D9
:1029700070BD70B50446FEF795FE0546E868FDF7A4
:1029800077FE208070BD70B50446FEF78BFE0546CD
:102990002869FDF76DFE208070BD70B50446FEF716
:1029A00081FE05466869FDF763FE208070BD70B545
:1029B0000446FEF777FE0546A869FDF759FE20801C
:1029C00070BD70B50446FEF76DFE0546E869FDF77B
:1029D0004FFE208070BD70B50446FEF763FE0546CD
:1029E000286AFDF745FE208070BD70B50446FEF7ED
:1029F00059FE0546A86CFDF73BFE208070BD70B502
:102A00000446FEF74FFE0546686AFDF731FE20805A
:102A100070BD70B50446FEF745FE0546A86AFDF791
:102A200027FE208070BD70B50446FEF73BFE0546CC
:102A3000E86AFDF71DFE208070BD70B50446FEF704
:102A400031FE0546286BFDF713FE208070BD70B582
:102A50000446FEF727FE0546686BFDF709FE208059
:102A600070BD70B50446FEF71DFE0546A86BFDF768
:102A7000FFFD208070BD70B50446FEF713FE0546CD
:102A8000E86BFDF7F5FD208070BD70B50446FEF7DC
:102A900009FE0546286CFDF7EBFD208070BD70B582
:102AA0000446FEF7FFFD0546686CFDF7E1FD20805A
:102AB00070BD70B50446FEF7F5FD05462868FDF7C4
:102AC000D7FD208070BD70B50446FEF7EBFD0546CE
:102AD0006868FDF7CDFD208070BD70B50446FEF737
:102AE000E1FD0546A868FDF7C3FD208070BD10B567
:102AF00004461CB9002000F0B1FE02E0002000F006
:102B0000C5FE10BD10B504461CB9012000F0A6FE9C
:102B100002E0012000F0BAFE10BD000038B5044606
:102B20000020009021780246636801F0DBFF01F08D
:102B3000DBFE0348D4E90323A1680EC038BD0000C2
:102B40000C05002010B502F03DF810BD70470000E4
:102B500070B5002100230F22C47804B3154C2468FB
:102B600004F4E064C4F5E064210AC1F10403CA403E
:102B7000447804FA03F184781440214309010E4C8F
:102B80000678A155047804F01F050124AC400578AF
:102B90006D11AD0005F1E025C5F8004109E00478AC
:102BA00004F01F050124AC40044D0678761145F869
:102BB000264070BD0CED00E000E400E080E100E0A4
:102BC00002490143024A1160704700000000FA0503
:102BD0000CED00E07047704729B1064AD269024304
:102BE000044BDA6104E0034AD2698243014BDA61A3
:102BF000704700000010024029B1064A12690243E2
:102C0000044B1A6104E0034A12698243014B1A61C2
:102C1000704700000010024029B1064A9269024341
:102C2000044B9A6104E0034A92698243014B9A6122
:102C3000704700000010024029B1064AD2680243E2
:102C4000044BDA6004E0034AD2688243014BDA6045
:102C5000704700000010024030B50021002200241F
:102C600000232D4D6D6805F00C0121B1042905D01C
:102C7000082923D105E0294D056022E0274D056094
:102C80001FE0254D6D6805F47012234D6D6805F445
:102C90008034022505EB92421CB9214D5543056055
:102CA0000BE01D4D6D6805F400351DB11C4D5543FD
:102CB000056002E0194D5543056002E0174D0560BF
:102CC00000BF00BF144D6D6805F0F0010909154DF6
:102CD0006B5C0568DD4045600F4D6D6805F4E06193
:102CE000090A104D6B5C4568DD4085600A4D6D68D2
:102CF00005F46051C90A0B4D6B5C4568DD40C56049
:102D0000054D6D6805F44041890B074D6B5CC56846
:102D1000B5FBF3F5056130BD0010024000127A00EA
:102D200000093D006C0300207C03002070B50446C0
:102D30005A21C62002F0AEFA0A20FDF7A9FF20466C
:102D400002F0C6F905466420FDF7A2FF284670BDD3
:102D50002DE9F04107460C4615462A4621463846DD
:102D600000F038F810B90020BDE8F081691E204657
:102D7000FDF73BFF0646681E205CB04201D00020F4
:102D8000F2E70120F0E700002DE9F04107460C468C
:102D9000154617B90220BDE8F08100260C4E6019D7
:102DA000A0F58078FF2C0EDD6019B0F5817F0ADC7C
:102DB000706828B11FFA88F2294638467368984728
:102DC0001EB90120E7E70120E5E70020E3E7000066
:102DD000C001002070B506460C4615467019B0F5C6
:102DE000807F00DC0CB9002070BDFFF7F5F8A02053
:102DF000FFF7AEF8FFF724F900B926E03046FFF7F9
:102E0000A7F8FFF71DF900B91FE0FFF7E5F8A120CB
:102E1000FFF79EF8FFF714F900B916E0681E85B2B7
:102E200005E0FFF74FF804F8010BFFF773F8281ED1
:102E3000A5F101018DB2F4D1FFF744F82070FFF73E
:102E4000B1F8FFF7E7F80120CEE7FFF7E3F800203D
:102E5000CAE700002DE9F04780468946174617B9B2
:102E60000220BDE8F087002423E0002500261AE0B8
:102E7000124800EB0610408808EB0401884200D09D
:102E800010E00E4800EB0615287800F0010008B9A4
:102E90000220E6E7A86820B1022202FB0470A968BC
:102EA000884700BF761C162EE2D30DB90120D8E763
:102EB000641C4C45D9D30020D3E7000060000020FB
:102EC00010B504460021C62002F0E4F93220FDF7D7
:102ED000EBFE204602F0FCF810BD70B504467025EC
:102EE0002A4621460020FFF733FF08B1012070BDBC
:102EF0002A4621468020FFF72BFF08B10120F6E784
:102F00000020F4E710B50021D32002F0C3F9C82057
:102F1000FDF7BEFE10BD000010B5002101A0FDF7B9
:102F2000F2FE10BD53415545202020200000000036
:102F3000704770B505460C46FEF776FA6806060E31
:102F400046F0B00000F08CFEFFF7C2F8022000F05F
:102F500087FEFFF7BDF8E0B200F082FEFFF7B8F899
:102F6000200A00F07DFEFFF7B3F8FEF779FA70BD96
:102F700010B502F057F810BD10B5FDF7B5FF10BD44
:102F800010B5FFF7F9FF10BD30B59DB004460D46F2
:102F90001048405DA04202D100201DB030BD01A804
:102FA000FFF79BFF58B1BDF8040045F65A2188424F
:102FB00005D1702201A907486C38FDF7D5F80548FE
:102FC00044556C3800F08EFF08B90020E5E7012079
:102FD000E3E700000804002030B59DB004460D462C
:102FE000114850F82500A04202D100201DB030BD8C
:102FF00001A8FFF772FF58B1BDF8040045F65A2149
:10300000884205D1702201A907483038FDF7ACF895
:10301000054840F82540303800F064FF08B900202A
:10302000E4E70120E2E70000CC03002030B59DB0CA
:1030300004460D46114850F82500A04202D1002058
:103040001DB030BD01A8FFF748FF58B1BDF804001E
:1030500045F65A21884205D1702201A907483C381B
:10306000FDF782F8054840F825403C3800F03AFF6B
:1030700008B90020E4E70120E2E70000D8030020BF
:1030800030B59DB004460D46114850F82500A042C9
:1030900002D100201DB030BD01A8FFF71EFF58B1BE
:1030A000BDF8040045F65A21884205D1702201A9D5
:1030B00007486038FDF758F8054840F82540603863
:1030C00000F010FF08B90020E4E70120E2E700006B
:1030D000FC03002010B500F001F810BD0CB5002075
:1030E000019000903348006840F480303149086016
:1030F00000BF3048006800F4003000900198401C88
:103100000190009818B90198B0F5A06FF1D1294845
:10311000006800F4003010B10120009001E00020B0
:1031200000900098012843D12348006840F0100027
:10313000214908600846006820F00300086008463E
:10314000006840F0020008601A4840681949486069
:103150000846406848600846406840F4806048601F
:103160000846406820F47C1048600846406840F4F7
:10317000E81048600846006840F08070086000BFB2
:103180000C48006800F000700028F9D00948406839
:1031900020F00300074948600846406840F00200FC
:1031A000486000BF0348406800F00C000828F9D1CF
:1031B0000CBD0000001002400020024010B50021AC
:1031C00001A0FDF7A0FD10BD534574202020200074
:1031D00030B59DB004460D46114850F82500A04278
:1031E00002D100201DB030BD01A8FFF776FE58B116
:1031F000BDF8040045F65A21884205D1702201A984
:1032000007482438FCF7B0FF054840F8254024382B
:1032100000F068FE08B90020E4E70120E2E70000C2
:10322000C003002038B5002420E004EB4401114A1B
:1032300052F821000121FFF7EFFC04EB44000D4997
:1032400001EB80000089ADF8000004208DF8030038
:1032500002208DF8020004EB4401064A02EB8101D2
:1032600048686946FEF716F9601CC4B2042CDCD32A
:1032700038BD00001003002008B501210420FFF72D
:10328000CBFC4FF48070ADF8000010208DF80300E7
:1032900001208DF8020069460148FEF7FBF808BDE1
:1032A0000008014010B5094802684068521C40F10E
:1032B000000006490A6048600548006800B910BD72
:1032C00003480068804700BFF9E70000B002002013
:1032D000B802002030B5164800684FF47A72B0FB8F
:1032E000F2F1B1F1807F01D301201DE021F07F4098
:1032F000401E4FF0E022506150170F22002807DADD
:1033000013071D0E0B4B00F00F04241F1D5503E087
:1033100013071C0E084B1C5400BF00204FF0E02286
:10332000906107201061002008B100BFFEE730BDAA
:103330008003002018ED00E000E400E010B5134821
:10334000006840F0010011490860084640681049D3
:1033500008400E494860084600680E4908400B497D
:1033600008600846006820F480200860084640682D
:1033700020F4FE0048604FF41F008860FFF7AAFEAB
:103380004FF000600449086010BD000000100240CA
:103390000000FFF8FFFFF6FE08ED00E010B5012188
:1033A000880700F02DF970B107480078401C0649E5
:1033B0000870084600780A2801DD00200870012105
:1033C000880700F01AF810BD5403002010B5012141
:1033D000074800F015F948B10121054800F00DF843
:1033E0000021034800F026F901F05AFE10BD00004C
:1033F000000C0040CA4302827047CA4302827047F1
:1034000021B1028842F00102028004E002884FF6F6
:10341000FE731A400280704710B504466848844223
:1034200008D10121C014FFF707FC0021E014FFF7C9
:1034300003FCC4E0B4F1804F08D101210846FFF736
:10344000DBFB00210120FFF7D7FBB8E05D48844299
:1034500008D101210220FFF7CFFB00210220FFF756
:10346000CBFBACE05848844208D101210420FFF78F
:10347000C3FB00210420FFF7BFFBA0E053488442B8
:1034800008D101210820FFF7B7FB00210820FFF732
:10349000B3FB94E04E48844208D101211020FFF78D
:1034A000ABFB00211020FFF7A7FB88E049488442CE
:1034B00008D101212020FFF79FFB00212020FFF7EA
:1034C0009BFB7CE04448844208D101214014FFF773
:1034D000B3FB00216014FFF7AFFB70E03F4884426C
:1034E00009D10121C804FFF7A7FB00214FF40020F8
:1034F000FFF7A2FB63E03A48844209D101210805A5
:10350000FFF79AFB00214FF48010FFF795FB56E080
:103510003448844209D101214805FFF78DFB002181
:103520004FF40010FFF788FB49E02F48844208D190
:1035300001214020FFF760FB00214020FFF75CFBEA
:103540003DE02A48844208D101218020FFF754FB46
:1035500000218020FFF750FB31E02548844208D14C
:1035600001218015FFF748FB0021A015FFF744FB60
:1035700025E02048844209D101210804FFF75CFBC3
:1035800000214FF48030FFF757FB18E01A488442BF
:1035900009D101214804FFF74FFB00214FF400300F
:1035A000FFF74AFB0BE01548844208D1012188044B
:1035B000FFF742FB00214FF48020FFF73DFB10BDD9
:1035C000002C01400004004000080040000C0040B6
:1035D000001000400014004000340140004C014045
:1035E000005001400054014000180040001C004001
:1035F00000200040004001400044014000480140DC
:1036000030B50246002000230024158A05EA010394
:10361000958905EA010413B10CB1012000E00020F6
:1036200030BD1AB183890B43838102E083898B43C8
:103630008381704781847047002202881D4B984225
:103640000ED01D4B98420BD0B0F1804F08D01B4BD1
:10365000984205D01A4B984202D01A4B984204D196
:103660004FF68F731A404B881A43174B984207D076
:10367000164B984204D04FF6FF431A40CB881A43AA
:1036800002808B8883850B8803850A4B98420BD078
:10369000094B984208D00E4B984205D00D4B9842EA
:1036A00002D00D4B984201D10B7A0386012383820D
:1036B00070470000002C014000340140000400402D
:1036C00000080040000C00400010004000140040C2
:1036D00000400140004401400048014010B5002472
:1036E00013E004EB44000A4911F8200058B100200F
:1036F00004EB4401064A02F8210004EB440102EB0A
:10370000810188688047601CC4B2052CE9D310BDD4
:103710000000002000202BE000EB4001164A02EBE5
:103720008101498811B300EB400102EB8101498816
:10373000491E00EB4002104B03EB8202518000EB6C
:1037400040011A4602EB8101498879B9012100EB59
:10375000400203F8221000EB40011A4602EB8101FF
:10376000898800EB400203EB82025180411CC8B201
:103770000528D1D3704700000000002001490860EF
:1037800070470000B80200201FB50446012108461A
:10379000FFF722FA4FF08040FFF73EFE41F61F4050
:1037A000ADF80400601E80B2ADF808000020ADF84E
:1037B0000A00ADF8060001A94FF08040FFF73CFF7A
:1037C00001218807FFF716FE012211469007FFF737
:1037D00028FF01218807FFF713FE1C208DF8000049
:1037E00000208DF8010006208DF8020001208DF8E0
:1037F00003006846FFF7ACF91FBD10B54FF47A70AF
:10380000FFF7C2FF10BD000070B50446042C00D3C2
:1038100070BD04EB4402104B03EB8202128991B29B
:1038200004EB440203EB82025068FDF707FF0546F4
:10383000C5F10100C5B204EB4402074B03EB820261
:10384000128991B204EB440203EB820250682A46CB
:10385000FDF701FF00BFDBE7BC02002010B5044606
:10386000042C00D310BD04EB4402074B03EB82028F
:10387000128991B204EB440203EB82025068FDF717
:10388000E8FE00BFEEE70000BC02002010B50446D1
:10389000042C00D310BD04EB4402074B03EB82025F
:1038A000128991B204EB440203EB82025068FDF7E7
:1038B000CEFE00BFEEE70000BC02002010B50F49AD
:1038C000086840F2255100F09AF838B101F0F0FB99
:1038D0000A49086840F2255100F01BF807490868BA
:1038E00040F2266100F08BF838B101F0E9FB0349A2
:1038F000086840F2266100F00CF810BD5803002063
:1039000001F40072B2F5007F00D100BFCA4302800B
:10391000704710B50022002340F66A14A14200D17E
:1039200000BF0A1201249440A3B2DC43048010BDFE
:1039300021B1828942F40052828104E082894DF6ED
:10394000FF731A408281704710B5044620488442B4
:1039500009D101218803FFF76FF900214FF480405E
:10396000FFF76AF932E01B48844209D1012148047B
:10397000FFF742F900214FF40030FFF73DF925E051
:103980001548844209D101218804FFF735F9002147
:103990004FF48020FFF730F918E01048844209D135
:1039A0000121C804FFF728F900214FF40020FFF798
:1039B00023F90BE00A48844208D101210805FFF7EA
:1039C0001BF900214FF48010FFF716F910BD00001D
:1039D000003801400044004000480040004C0040D6
:1039E0000050004002460020B1F5007F00D100BF2A
:1039F00013880B400BB1012000E00020704770B528
:103A00000246002400230025002040F66A16B14239
:103A100000D100BFC1F3421501F01F03012606FAD1
:103A200003F3012D02D19689334006E0022D02D125
:103A3000168A334001E0968A33400C12012606FABA
:103A400004F41688344013B10CB1012000E00020CA
:103A500070BDF0B50346002400260025002040F686
:103A60006A17B94200D100BF1846C1F3421401F0F1
:103A70001F06012707FA06F5012C01D10C3004E0DE
:103A8000022C01D1103000E014301AB107682F4326
:103A9000076002E00768AF430760F0BD2DE9F0471B
:103AA00086B005460E460024A24600BFA146002768
:103AB000B08900B100BF2F462C8A4CF6FF7004403D
:103AC000F08804432C82AC894EF6F3100440B08891
:103AD00031890843718908430443AC81AC8A4FF6AD
:103AE000FF400440B0890443AC8201A8FFF7B4F85A
:103AF0001F48874202D1DDF810A001E0DDF80CA0DC
:103B0000A88900F4004040B10AEBCA0000EB0A109B
:103B100031684900B0FBF1F807E00AEBCA0000EB9E
:103B20000A1031688900B0FBF1F86420B8FBF0F0AE
:103B300004012009642101FB1089A88900F40040D8
:103B400040B1322000EBC900B0FBF1F000F00700FB
:103B5000044308E0322000EB09106421B0FBF1F0CF
:103B600000F00F0004432C8106B0BDE8F087000090
:103B70000038014001468888C0F308007047C1F34F
:103B800008028280704700001FB5044601214804E6
:103B9000FFF722F810490868FFF7D6FE00940020CE
:103BA000ADF80400ADF80600ADF80800ADF80C0063
:103BB0000C20ADF80A00084908686946FFF76EFF57
:103BC000054908680121FFF7B3FE03490868402151
:103BD000FFF796FE1FBD00004003002010B586B021
:103BE000044601218803FFF717F816490868FFF714
:103BF000ABFE02940020ADF80C00ADF80E00ADF85D
:103C00001000ADF814000C20ADF8120002A90E4807
:103C1000FFF744FF4FF4C060FEF7D2FF25208DF878
:103C2000040000208DF805008DF8060001208DF8B5
:103C3000070001A8FEF78CFF01210348FFF778FE7B
:103C400006B010BD580300200038014000BFFEE759
:103C500010B5FDF7BFFF4FF4E130FFF795FF10BD42
:103C600070B50446002524E04FF480711548FDF737
:103C7000EEFC0520FDF718F804F0800028B14FF4A1
:103C800000711048FDF7E5FC04E04FF400710D48A9
:103C9000FDF7DDFC0520FDF707F84FF480710948BA
:103CA000FDF7D7FC0520FCF7FFFF6006040E681C3B
:103CB000C5B2082DD8DB4FF480710248FDF7C7FC70
:103CC00070BD0000000C014070B504460D464FF475
:103CD00080512448FDF7BBFC00261BE04FF4005147
:103CE0002048FDF7B4FC04F08000802804D1C10115
:103CF0001C48FDF7AEFC04E04FF480411948FDF785
:103D0000A6FC6006040E4FF400511648FDF7A1FC16
:103D1000701CC6B2082EE1DB00261BE04FF40051F8
:103D20001048FDF794FC05F08000802804D1C10103
:103D30000C48FDF78EFC04E04FF480410948FDF784
:103D400086FC6806050E4FF400510648FDF781FC1D
:103D5000701CC6B2082EE1DB4FF480510148FDF71C
:103D600078FC70BD000C014070B504460D465A2128
:103D7000C92001F08FFA3220FCF796FF2946204631
:103D800001F088FA3220FCF78FFF0021C92001F0F2
:103D900081FAC820FCF788FF70BD70B506460C4656
:103DA0001546691E2046FCF720FF691E60542A460E
:103DB0002146304600F005F808B9002070BD01200A
:103DC000FCE72DE9F04706460F46904606EB080053
:103DD000B0F5807F00DC17B90020BDE8F0873546DC
:103DE00000242FE014B105F0070000BBFEF712F924
:103DF0004FF000090CE0FEF7EFF8A020FEF7A8F85E
:103E0000FEF71EF900B106E009F101001FFA80F982
:103E1000B9F1640FEFDB00BFB9F1640F00D117E017
:103E20002846FEF795F8FEF70BF900B910E0385D6B
:103E3000FEF78EF8FEF704F900B909E0681CC5B278
:103E4000601C84B24445CDDBFEF7E4F80120C4E7F2
:103E5000FEF7E0F80020C0E72DE9F04781468A46EA
:103E6000164616B90220BDE8F087002534E000248C
:103E700000272BE01A4800EB0710408809EB0501EA
:103E8000884200D021E0164800EB0714207800F0AB
:103E9000020008B90220E6E716F815004FF47F414A
:103EA00001EA00206900491C715C40EA0108A08811
:103EB000404502DCE088404501DA0220D3E7E068B3
:103EC00010B14046E168884700BF7F1C162FD1D350
:103ED0000CB90120C7E76D1C5545C8D30020C2E7C7
:103EE0006000002070B504467025C82D01DD00205B
:103EF00070BD2A4621460020FFF74FFF08B9002079
:103F0000F6E72A4621468020FFF747FF0120EFE72A
:103F10000FB4054B10B503A9044A029800F03CF910
:103F200010BC5DF814FB0000554F000898030020FA
:103F30000FB4084B10B504A902AA039800F02CF99D
:103F4000044602A9002000F0BEFC204610BC5DF82B
:103F500014FB0000C74800080EB507460E4614467D
:103F600019491AA001F00AF81749384601F006F875
:103F700015491CA001F002F81349304600F0FEFF7D
:103F800011491AA000F0FAFF03AD0021681E054692
:103F900001700A21681E054601700CE00A2094FB9E
:103FA000F0F100FB11403030C1B2681E05460170CF
:103FB0000A2094FBF0F4002CF0DC0349284600F0C2
:103FC000DDFF00F085FC0000940300202A2A2A204F
:103FD000617373657274696F6E206661696C656484
:103FE0003A2000002C2066696C6520002C206C694A
:103FF0006E65200002E008C8121F08C1002AFAD12D
:1040000070477047002001E001C1121F002AFBD158
:10401000704700002DE9FF5F82B00021DDE9043028
:10402000020DDDF840B0034318D044F61050A2F260
:10403000FF3242431514119801281FD0A5EB0B0045
:10404000401C5FEA000A4FF000064E4FDFF838913F
:10405000B046504615D5CAF1000413E0119801246A
:104060004AA3012801D16FEA0B010298119AC0E915
:104070000031C0E9024206B0BDE8F09FCBF100007C
:10408000DFE704460021404A491842EB0450CDE9DD
:10409000001012E0E00707D032463B464046494652
:1040A000FCF7EAF98046894632463B4610461946F7
:1040B000FCF7E2F906460F466410002CEAD1DDE970
:1040C0000401DDE90023BAF1000F06DAFCF7D4F9A8
:1040D00042464B46FCF7D0F905E0FCF73FFA424672
:1040E0004B46FCF73BFA04460E460022284BFCF7F1
:1040F00053FC03D84FF0FF30014607E00022254B68
:1041000020463146FCF711F9FCF72EFC102409E09B
:10411000002C0ADB0A220023FCF730FB039B303221
:104120001A55641E50EA0102F2D1641C039AC4F1CC
:1041300011031444119A012A03D0012208430DD11E
:104140000AE0084304D000204FF0110B119072E7F1
:10415000A3EB0B056D1E0DE05B4504DD4FF0000287
:1041600005F1010504E003DA4FF00002A5F10105B5
:10417000002AECD002981199C0E90231C0E900454B
:1041800079E70000000014400000F03F300000001C
:104190000000F0430000E03F2DE9FF4F95B09B4643
:1041A0008946064600250FE2252877D100242746B8
:1041B000F84A0121059400E0044316F8013F203B32
:1041C00001FA03F01042F7D130782A2811D06FF0AD
:1041D0002F033078A0F13002092A16D8059A44F04E
:1041E000020402EB820203EB42021044761C0590AB
:1041F000EFE759F8042B0592002A03DA504244F401
:104200000054059044F00204761C30782E2816D114
:1042100016F8010F44F004042A280DD06FF02F0285
:104220003078A0F13003092B09D807EB870302EBA4
:104230004303C718761CF3E759F8047B761C3078E3
:104240006C280FD006DC4C2817D068280DD06A28BF
:1042500014D104E0742810D07A280FD10DE044F472
:1042600000140AE044F4801401E044F4401472782D
:10427000824202D104F58014761C761C30786628C0
:104280000BD013DC582877D009DC002875D04528DE
:10429000F6D04628F4D047281AD19DE118E06328CB
:1042A00035D0642879D0652812D195E1702873D073
:1042B00008DC6728F1D069286FD06E280DD06F28F0
:1042C00006D1B5E073282CD0752875D0782874D025
:1042D0005A46179990476D1C75E1C4F302500228A5
:1042E00009D003280DD0D9F8001004280DD00D6096
:1042F00009F1040967E1D9F80010EA17C1E9005291
:10430000F6E7D9F800100D80F2E70D70F0E719F824
:10431000041B8DF8001000208DF80100EA460120F2
:1043200003E059F804AB4FF0FF3061074FF0000194
:1043300002D40DE008F101018846B9420FDA804548
:10434000F8DB1AF808100029F4D108E008F101019F
:1043500088468142FADB1AF808100029F6D1059840
:104360005B46A0EB080721463846179A00F094FAFE
:10437000284400EB080507E04DE029E10DE01AF8BC
:10438000010B5A4617999047B8F10108F7D25B46DE
:1043900021463846179A13E142E00A220092C4F3FC
:1043A00002524FF0000A022A08D059F804CB032A1F
:1043B0004FEAEC710AD00DE029E02AE009F107018B
:1043C00021F00702F2E802C1914609E00FFA8CFCE5
:1043D0004FEAEC71042A03D14FFA8CFC4FEAEC71DE
:1043E000002907DA0A460021DCF1000C61EB02012A
:1043F0002D2202E0220504D52B228DF80420012273
:1044000003E0E20701D02022F7E7904659E00A21B5
:1044100002E010220DE010214FF0000A00910BE0A5
:1044200010224FF0000A44F004040827009203E031
:1044300008224FF0000A0092C4F30252022A05D06B
:1044400059F804CB0021032A08D009E009F107013B
:1044500021F00702F2E802C1914605E01FFA8CFC48
:10446000042A01D10CF0FF0C4FF00008220728D5D8
:10447000702806D0009B83F0100353EA0A0305D08E
:104480000EE040228DF80420012208E05CEA0102DF
:1044900006D030228DF804208DF8050002229046C7
:1044A000009B83F0080353EA0A030AD15CEA010285
:1044B00001D1620705D530228DF804204FF00108A4
:1044C0007F1E582804D034A003900EA802900DE05F
:1044D00036A0F9E753466046009AFCF74FF9844648
:1044E0000398825C0298401E029002705CEA010010
:1044F000F0D1029806A9081A00F1200A600702D537
:1045000024F4803400E00127574502DDA7EB0A00C0
:1045100000E0002000EB0A01009005984144401A99
:104520000590E00306D45B462146179A059800F0F3
:10453000B3F90544002706E001A85A46C05D179963
:1045400090476D1C7F1C4745F6DBE0030CD55B46AE
:104550002146179A059800F09FF9054404E03020A1
:104560005A46179990476D1C0099481E00900029E3
:10457000F5DC08E0029802995A460078491C02913D
:10458000179990476D1CBAF10001AAF1010AF1DCFC
:1045900065E1000009280100303132333435363707
:1045A000383961626364656600000000303132337F
:1045B000343536373839414243444546000000001F
:1045C00000F058F90544761C307800287FF4ECADF3
:1045D00019B02846BDE8F08F620700D4062709F11C
:1045E000070222F0070CFCE80223E14603F0004832
:1045F0005FEA080C02D00FF2702C0DE05FEA045C59
:1046000002D50FF2682C07E05FEAC47C02D00FF2FB
:10461000602C01E0AFF2700C4FF0FF3823F0004344
:10462000CDF850C065280CD006DC452809D04628B6
:104630001DD047283DD13DE0662818D067287ED19F
:1046400038E00021112F01DB112000E0781CCDE9BA
:10465000000106A90EA8FFF7DDFCDDE90F010E9AA7
:1046600003910021009207F1010A04914DE04FF0FF
:1046700000400097CDE9011006A90EA8FFF7CAFC7B
:10468000DDE90F0203920E9B11990022DDF80CA0C8
:104690000093049211B9791C00EB010AB7EB0A00F0
:1046A00004D4C0F1FF3007F1010A0490AAEB07001F
:1046B000019044E0012F00DA01270021112F01DDD4
:1046C000112000E03846CDE9000106A90EA8FFF749
:1046D000A1FCDDE90F010E9A0391002104910092E3
:1046E000BA4621070CD40399514500DA8A46BAF13B
:1046F000010F05DD009AAAF10101515C302908D0B3
:10470000B84202DA10F1040F06DA0121CDE90110F6
:1047100015E0AAF10101E9E7002805DC049901444C
:104720000491AAEB000102E0411C514500DD8A46DC
:104730000499401A401C01904FF00040029020075D
:1047400004D40198504501DBCDF8048000208DF899
:104750004F0002980DF14F07B0F1004F25D02B20EC
:104760000E9002984FF0020800280CDA40420290A6
:104770002D200E9007E00A210298FBF7E9FF303167
:10478000029007F8011DB8F10001A8F10108F2DC60
:1047900002980028EFD1791E0E980870307800F04A
:1047A000200040F0450007F8020D12A8C01B00F1E0
:1047B00007081498007800B1012000EB0A01019865
:1047C00001EBE07105984144401A401E0590E0035A
:1047D00006D45B462146179A059800F05DF805441B
:1047E0001498007818B15A46179990476D1CE00349
:1047F00024D55B462146179A059800F04DF80544EC
:104800001CE00498002807DBDDE90301884203DD92
:104810000098405C179901E0179930205A4690475C
:10482000049805F10105401C04900198401E019078
:1048300004D12E205A46179990476D1CBAF10001F9
:10484000AAF1010ADDDC05E017F8010B5A461799B9
:1048500090476D1CB8F10001A8F10108F4DC5B463B
:104860002146179A0598ABE62D0000002B000000AA
:10487000200000002DE9F041044600251E461746A1
:10488000880404D405E039462020B0476D1C641E1E
:10489000F9D52846BDE8F0812DE9F0410446002510
:1048A0001E469046C80301D5302700E02027880423
:1048B00004D505E041463846B0476D1C641EF9D565
:1048C0002846BDE8F0810A68531C0B6010707047E1
:1048D00000BFFEE710B5002101A0FCF714FA10BDDF
:1048E000644953202020200010B500240648007899
:1048F000012806D105480068804700200249087059
:1049000000E00624204610BDCA010020D00100208E
:104910002DE9F05F06460D464FF0000B288805286C
:1049200043D170784FEA002AB07840EA0A0AF0785A
:10493000040230790443012C34DBB4F5FA6F31DA28
:10494000374600202880022007F8010B2888401CE9
:10495000288004F0070040B12046E11704EB5171B4
:10496000C910491C01F0FF0805E02046E11704EBDF
:104970005171C1F3C70807F8018B2888401C2880B3
:1049800022465146384600F0B5FA8146B9F1000F8B
:1049900004D0484600F072FB834608E02888404473
:1049A000288004E04FF0030B01E04FF0030B584662
:1049B000BDE8F09F2DE9F04705460C464FF0000A90
:1049C0002088052834D168784FEA0029A87840EA81
:1049D0000909E878060228790643012E25DB7D2E99
:1049E00023DC2F4600202080032007F8010B2088BD
:1049F000401C20807006000E07F8010B2088401C28
:104A00002080002332464946384600F085FA804629
:104A1000B8F1000F04D0404600F030FB824609E0B8
:104A2000208800EB4600208004E04FF0030A01E0FC
:104A30004FF0030A5046BDE8F0872DE9F0410446E7
:104A40000E464FF000083088052810D16078070224
:104A5000A078074301231A463946E01C00F05CFAAF
:104A6000054635B1284600F009FB804601E04FF0CD
:104A700003084046BDE8F0812DE9F04704460E46A4
:104A80004FF0000A3088062826DB60784FEA0028BD
:104A9000A07840EA0808E07805022079054394F8F8
:104AA0000590012D15DB782D13DC6806000E4845B6
:104AB0000FD101232A464146A01D00F02DFA0746DA
:104AC00027B1384600F0DAFA824607E00520308048
:104AD00004E04FF0030A01E04FF0030A5046BDE83E
:104AE000F08700002DE9F04705460C4616461F46A4
:104AF000DDF820904FF000081CB1012C01DBF72CF1
:104B000002DD4FF0020835E01C48047005BB1C486C
:104B10001C4908601C481D4908601D481D49086063
:104B20001D481E49086000201D4908601D481E4997
:104B300008601E481E4908601E481F4908604B4611
:104B40003A4631460D48007800F0F0F8804602E021
:104B50004FF0020800BF00BFB8F1000F0AD100F00B
:104B600009FC10B94FF0030804E014480570012057
:104B7000134908704046BDE8F0870000C8010020D6
:104B8000C94E0008D0010020E54E0008D4010020E5
:104B9000214E0008CC0100207D4D0008D8010020E6
:104BA000DC01002061540008E0010020C15500082C
:104BB000E401002039550008E8010020C901002067
:104BC000CA01002038B500254C48007808B10620FD
:104BD00038BD684600F0BCFB01287DD19DF800007F
:104BE00030B1012805D0022818D0032800D181E077
:104BF00081E0434A43494448444B1B689847054673
:104C00005DB94148007842490978884202D03E485F
:104C1000007810B9022000F0B5FB6CE0394800685C
:104C200000783C49087001203B490870002417E0D7
:104C30003A4810F8340000B914E0384810F834004D
:104C40003449097888420AD1344800EBC4002C4921
:104C500042682C48006890472F49087002E0641CA5
:104C6000102CE5DB00BF2B480078642810D12C48BD
:104C7000006800B93FE0264800782249096801F839
:104C8000010C20490968481E25490968884730E019
:104C90001D48007868B320480078C8B10020184942
:104CA00008801C48007840F0800115480288008880
:104CB000401C134B18801348006881541648027832
:104CC000184601880088401C18800E48006842542D
:104CD00014480078012800E00EE000D100BF084829
:104CE0000288084801680A4800780F4B1B689847FB
:104CF000054600E000BF00BF002069E7CA010020B0
:104D00007E020020780200207C020020D8010020D2
:104D1000C80100207D02002080020020F401002054
:104D200074020020C9010020CC0100202DE9F047C9
:104D300081460E4614461F464FF000083B460822A7
:104D40002146304600F036FB012802D04FF0030820
:104D50000FE0B4F5964F01D9232503E06000064922
:104D6000B1FBF0F5A8B200F041FB012801D04FF0F3
:104D700003084046BDE8F087A07F17002DE9F04109
:104D800004460D461646002711480088FF2800DC1F
:104D900004E09C220FA117A0FFF7DEF80C48008862
:104DA000042810DB0A4801881C4800F0F3F950B9C8
:104DB0001A480078207006480088C01E30801748C6
:104DC000401C286000E005273846BDE8F08100005F
:104DD0008E0200202E2E5C2E2E5C4D69645F4D6F7E
:104DE000646275735C7274755C6D627274752E6347
:104DF00000000000757352637642756666657250F6
:104E00006F73203C204D425F5345525F5044555FC5
:104E100053495A455F4D4158000000000C040020E2
:104E20002DE9F04105460E4617464FF0000821488F
:104E30000078012838D1701E1F49086001201F49E1
:104E400008801D48006805700846008838440880BE
:104E5000084601881848006800F09CF90446174984
:104E60000888411C154B198015490C54221219460B
:104E70000888411C198012490A5401201149087000
:104E80000D490968087800F0A5FA0B480068401C35
:104E90000949086009480088401E08490880012126
:104EA000002000F093F901E04FF005084046BDE80E
:104EB000F081000085020020880200208C02002082
:104EC0000C0400208402002010B500200449087062
:104ED0000021012000F07AF900F0C6F910BD0000B1
:104EE0008502002010B50021084600F06FF900F09F
:104EF000A5F910BD2DE9F04104460D4616460548BA
:104F00003246294683682046984707463846BDE81A
:104F1000F08100000C0500202DE9F04107460C4609
:104F200015469846B8F1000F07D1E9B2E0B2084A39
:104F300013683A469847064606E0E9B2E0B2044AEA
:104F400053683A46984706463046BDE8F08100006F
:104F50000C05002070B504460D46E1B2064A106803
:104F6000FEF70DFE00BF044908688021FEF73AFDF8
:104F70000028F8D0204670BD4003002070B50D46D3
:104F8000044602E02946FFF7E5FF14F8010B00286C
:104F9000F8D170BD08B501210420FDF73DFE402089
:104FA000ADF8000004208DF8030069461C48FCF7AA
:104FB00071FA8020ADF8000003208DF80200102067
:104FC0008DF8030069461648FCF764FA2020ADF816
:104FD000000003208DF8020010208DF803006946C0
:104FE0000F48FCF757FA1020ADF8000003208DF8A9
:104FF000020010208DF8030069460948FCF74AFAC0
:105000004FF48050ADF8000003208DF8020010200E
:105010008DF8030069460248FCF73CFA08BD000021
:105020000008014010B5FFF7B5FF00F003F8FBF7EB
:10503000E9FE10BD10B510210848FCF70AFB20213D
:105040000648FCF704FB80210448FCF700FB4FF402
:1050500080510248FCF7FDFA10BD00000008014035
:10506000FEF738F9FBF7A4FEFBF786FD4FF47A70E4
:10507000FBF70EFE01E0FEF731FBFCE7014621B134
:10508000012904D0072906D103E0002005E0022011
:1050900003E0062001E0042000BF00BF70470000CD
:1050A00010B502480068804710BD0000E8010020EC
:1050B00010B502480068804710BD0000E0010020E4
:1050C00010B502480068804710BD0000E4010020D0
:1050D0002DE9F0410546002610212D48FCF7B9FACC
:1050E0000120FBF7E1FD20212948FCF7B0FA01205F
:1050F000FBF7DAFD10212648FCF7A9FA0120FBF79F
:10510000D3FD00241DE020212148FCF7A2FA012054
:10511000FBF7CAFD05F0800020B180211C48FCF798
:1051200098FA03E080211A48FCF791FA6806050E08
:1051300020211748FCF78BFA0120FBF7B5FD601C16
:10514000C4B2082CDFDB0520FBF7AEFD002416E01F
:1051500020210F48FCF77DFA40210D48FCF76EFA3C
:1051600007460120FBF7A0FD20210948FCF76FFA54
:1051700047EA46060220FBF797FD601CC4B2182CD4
:10518000E6DB10210248FCF764FA3046BDE8F08106
:105190000008014070B502460C46FF25FF2309E0D8
:1051A00012F8010B80EA03010648405C80EA05031F
:1051B0000548455C201EA4F10106B4B2F0D143EAD3
:1051C000052070BD7C5900087C5A000870B5054662
:1051D0000C46012D0AD1012240F225511548FEF757
:1051E00038FC29021448FCF732FA0AE0002240F2A7
:1051F00025511048FEF72DFC4FF480710E48FCF746
:1052000028FA012C0AD1012240F226610948FEF752
:1052100020FC21020848FCF71CFA0AE0002240F2B8
:1052200026610448FEF715FC4FF480710248FCF734
:105230000EFA70BD003801400008014010B5002191
:105240000848FEF7F7F901210648FEF7D3F80022D7
:1052500001210448FEF7E5F900210248FEF7D0F8E5
:1052600010BD0000000C004010B500210848FEF7FA
:10527000E1F901210648FEF7BDF801221146044874
:10528000FEF7CFF901210248FEF7BAF810BD000081
:10529000000C004070B504460E4610212B48FCF768
:1052A000D8F920212948FCF7D2F910212748FCF72A
:1052B000CEF944F0800400251DE020212348FCF7AE
:1052C000C8F90520FBF7F0FC04F0800020B1802134
:1052D0001E48FCF7BEF903E080211C48FCF7B7F933
:1052E00020211A48FCF7B3F90320FBF7DDFC600628
:1052F000040E681CC5B2082DDFDB0520FBF7D4FCCB
:1053000000251CE020211148FCF7A3F90520FBF73C
:10531000CBFC06F4000020B180210C48FCF799F981
:1053200003E080210948FCF792F920210748FCF7A7
:105330008EF90320FBF7B8FC7600681CC5B2182D67
:10534000E0DB10210148FCF784F970BD0008014042
:1053500001460020054A127832B1054A12780A70D7
:105360000022024B1A7001207047000056030020F3
:1053700055030020002002490870012070470000FA
:105380005603002001460120024A107002480170B5
:1053900001207047560300205503002010B5044635
:1053A00003490868FEF7E6FB2070012010BD0000ED
:1053B000580300202DE9F04105460C4616461F46CD
:1053C000FDF75AFFFCF72CFC2046FEF707FC0120F6
:1053D000BDE8F08110B50446034908682146FEF790
:1053E000CEFB012010BD0000580300201FB504466D
:1053F0004FF4C060FDF7E4FB01210820FDF7ECFB52
:105400001648FEF709F8601E80B2ADF8040040F6B9
:105410000F60ADF800000020ADF80600ADF8020006
:1054200069460E48FEF708F901210C48FDF7E2FF36
:10543000012211460948FEF7F4F832208DF80C00DD
:1054400000208DF80D008DF80E0001208DF80F0062
:1054500003A8FDF77DFB012004B010BD000C004047
:1054600038B500242148007800B904E0ED2220A1DD
:1054700027A0FEF771FD6846FFF790FF2B480078E4
:1054800030B101280AD0022819D003282BD102E01C
:10549000FFF7EAFE27E0FFF7E7FE24E000202449BB
:1054A00008809DF800200888411C214B1980214963
:1054B0000A5402201D490870FFF7D6FE13E01C486D
:1054C0000088FF2809DC9DF8002019490888411C44
:1054D000174B198017490A5402E00320134908703A
:1054E000FFF7C2FE00BF00BF204638BD8402002087
:1054F0002E2E5C2E2E5C4D69645F4D6F6462757359
:105500005C7274755C6D627274752E6300000000CD
:1055100065536E645374617465203D3D205354415E
:1055200054455F54585F49444C45000085020020B3
:105530008E0200200C04002010B5002416480078CC
:1055400020B1022807D003280BD109E00020FFF783
:1055500019FF044618E00120FFF714FF044613E08A
:1055600012E00D48007838B10B480078022803D0CB
:1055700009480078032800D105E040F2611207A134
:105580000E48FEF7E9FC00BF00BFFFF757FE012001
:1055900001490870204610BD850200202E2E5C2E89
:1055A0002E5C4D69645F4D6F646275735C727475D7
:1055B0005C6D627274752E6300000000F45B00087D
:1055C00010B500241B480078012800D105E04FF4F5
:1055D000947219A120A0FEF7BFFC2648007810B1F4
:1055E000012824D104E000210120FFF7EFFD1EE097
:1055F0002148008878B1214909680878FFF7EAFE58
:105600001E480068401C1D4908601B480088401E59
:10561000194908800AE00320FFF7B4FE0446002180
:105620000120FFF7D3FD00201249087000BF00BF22
:10563000204610BD850200202E2E5C2E2E5C4D696A
:10564000645F4D6F646275735C7274755C6D6272D9
:1056500074752E63000000006552637653746174A4
:1056600065203D3D2053544154455F52585F4944A5
:105670004C450000840200208C020020880200209B
:105680007E306D79335B5F707F7B55412020000059
:105690000000000000000000000000000000556253
:1056A00020200000000000000000000000000000BA
:1056B0000000554320200000000000000000000012
:1056C0000000000000004941202000000000000010
:1056D00000000000000000000000496220200000DF
:1056E000000000000000000000000000000049432E
:1056F000202000000000000000000000000000006A
:1057000000005053202000000000000000000000B6
:105710000000000000007153202000000000000085
:105720000000000000000000000053532020000093
:1057300000000000000000000000000000005046D3
:105740002020000000000000000000000000000019
:105750000000462020202000000000000000000083
:105760000000000000005459504555412020000021
:105770000000000000000000000054595045556230
:10578000202000000000000000000000000054592C
:10579000504555432020000000000000000000009C
:1057A00000005459504549412020000000000000ED
:1057B00000000000000054595045496220200000BC
:1057C000000000000000000000005459504549430B
:1057D00020200000000000000000000000005459DC
:1057E0005045504120200000000000000000000053
:1057F0000000545950455062202000000000000075
:105800000000000000005459504550432020000083
:1058100000000000000000000000545950455053A3
:10582000202000000000000000000000000054598B
:1058300050457141202000000000000000000000E1
:105840000000545950457162202000000000000003
:105850000000000000005459504571432020000012
:105860000000000000000000000054595045505353
:10587000202000000000000000000000000054593B
:1058800050455341202000000000000000000000AF
:1058900000005459504553622020000000000000D1
:1058A00000000000000054595045534320200000E0
:1058B0000000000000000000000054595045535300
:1058C00020200000000000000000000000005459EB
:1058D000504550462020000000000000000000005D
:1058E00000005459504546202000000000000000F0
:1058F00000000000000000005A5A0100802500004E
:105900000000000000000000000000000000000097
:105910000000000000000000000000000000000087
:105920000000000000000000000000000000000077
:105930000000000000000000000000000000000067
:105940000000000000000000000000000000000057
:105950000000000000000000000000000000000047
:105960000000000000000000000000000000000037
:10597000552E0008593E0008892D000800C18140BD
:1059800001C0804101C0804100C1814001C080410F
:1059900000C1814000C1814001C0804101C08041FF
:1059A00000C1814000C1814001C0804100C18140EF
:1059B00001C0804101C0804100C1814001C08041DF
:1059C00000C1814000C1814001C0804100C18140CF
:1059D00001C0804101C0804100C1814000C18140BF
:1059E00001C0804101C0804100C1814001C08041AF
:1059F00000C1814000C1814001C0804101C080419F
:105A000000C1814000C1814001C0804100C181408E
:105A100001C0804101C0804100C1814000C181407E
:105A200001C0804101C0804100C1814001C080416E
:105A300000C1814000C1814001C0804100C181405E
:105A400001C0804101C0804100C1814001C080414E
:105A500000C1814000C1814001C0804101C080413E
:105A600000C1814000C1814001C0804100C181402E
:105A700001C0804101C0804100C1814000C0C1011E
:105A8000C30302C2C60607C705C5C404CC0C0DCDAE
:105A90000FCFCE0E0ACACB0BC90908C8D81819D91E
:105AA0001BDBDA1A1EDEDF1FDD1D1CDC14D4D5154E
:105AB000D71716D6D21213D311D1D010F03031F13E
:105AC00033F3F23236F6F737F53534F43CFCFD3D6E
:105AD000FF3F3EFEFA3A3BFB39F9F83828E8E9295E
